:100000000C9463000C948B000C948B000C94D20124
:100010000C94D2010C94D2010C948B000C948B00A4
:100020000C948B000C948B000C948B000C948B0024
:100030000C948B000C948B000C948B000C948B0014
:100040000C9498030C948B000C948B000C948B00F4
:100050000C948B000C948B000C948B000C948B00F4
:100060000C948B000C948B0000000008000201002F
:100070000003040700000000000000000102040863
:100080001020408001020408102001020408102002
:10009000040404040404040402020202020203032E
:1000A00003030303000000002300260029000000D2
:1000B0000000250028002B0000000000240027007D
:1000C0002A008E00950011241FBECFEFD8E0DEBFBE
:1000D000CDBF11E0A0E0B1E0E8E5FBE002C0059093
:1000E0000D92A233B107D9F721E0A2E3B1E001C03C
:1000F0001D92AE39B207E1F710E0C2E6D0E004C0CD
:100100002197FE010E949905C136D107C9F70E94C7
:100110005F030C949F050C940000089520E040E0DC
:1001200061E082E391E00C94A50282E391E00C94FB
:100130004C02CF93DF9340E855E260E070E082E349
:1001400091E00E94D00269E170E080E090E00E94BE
:10015000070461E082E10E94C404CDE480910001C3
:100160008D34D1F069E170E080E090E00E940704F6
:1001700082E391E00E947B01892B31F082E391E0E0
:100180000E94F1008093000182E10E947E04C297E8
:100190002CF7C0930001E2CFCBE0D1E081E0C33384
:1001A000D80731F08881229661E00E94C404F6CF1E
:1001B000C1E0D1E081E0C531D80731F088812296D5
:1001C00060E00E94C404F6CF60E082E00E94C404B4
:1001D00060E087E0DF91CF910C94C40480E090E070
:1001E0000895209193013091940128173907B9F4AB
:1001F0009091510180915201981789F0E09151013D
:10020000F0E0ED5AFE4F80812091510130E02F5FE8
:100210003F4F2F7333272093510190E008958FEFC4
:100220009FEF08951F93CF93DF93DC015C968D9130
:100230009C915D97009739F421E030E013963C9350
:100240002E9312973BC05196ED91FC915297509688
:100250002C915097322F30951FB75E964C915E9738
:10026000742F727041FD6095F8944081772311F0EE
:10027000422B01C043234083EC012197F1F748E072
:10028000508160FF02C0522B01C053235083EC0108
:100290002197F1F76695415099F78081772319F0FE
:1002A0008323808302C0282B20831FBF5C968D91FF
:1002B0009C915D970197F1F781E090E0DF91CF91FC
:1002C0001F9108950895209193013091940128176A
:1002D000390771F49091510180915201981741F0C2
:1002E000E0915101F0E0ED5AFE4F808190E00895D9
:1002F0008FEF9FEF0895209193013091940128177B
:10030000390771F4809152012091510190E0805C95
:100310009F4F821B910960E470E00E9430050895B0
:1003200080E090E00895E0919301F0919401E81746
:10033000F90769F4A389B4899C91858980958923FB
:100340008C93109294011092930181E0089580E0C3
:100350000895CF93DF93EC018A8D9B8D892BF1F06B
:100360008091930190919401C817D907B9F0009733
:1003700011F00E9493018E8D8E7F8E8F109252010C
:1003800010925101D0939401C0939301EB89FC89A1
:1003900090818D89892B808381E001C080E0DF918D
:1003A000CF9108951F920F920FB60F9211242F93A1
:1003B0003F934F935F936F937F938F939F93AF93ED
:1003C000BF93EF93FF93E0919301F09194013097E5
:1003D00009F451C0968DA685B785858591FF04C027
:1003E0009C91892329F447C09C91892309F043C03B
:1003F000A389B4899C918589809589238C9386896A
:1004000097890197F1F7608D718DA685B785558520
:1004100038E020E0CB010197F1F7822F90E095952D
:100420008795282F4C91452309F02068315091F78A
:10043000868D81FD20958091520190E001968F7309
:10044000992730915101381749F0A0915201B0E03D
:10045000AD5ABE4F2C938093520103C0868D8160AC
:10046000868F828D938D0197F1F7A389B4899C9132
:100470008589892B8C93FF91EF91BF91AF919F91CB
:100480008F917F916F915F914F913F912F910F903D
:100490000FBE0F901F90189524E231E0FC013183CC
:1004A00020830C9493011F93CF93DF93EC01162FBD
:1004B0006E8D6695617081E06827812F0E9400052E
:1004C00061E0812F0E94C404812F90E0FC01E45878
:1004D000FF4FE491E88BFC01E057FF4FE491F0E01F
:1004E000EE0FFF1FE255FF4F859194919A8B898BF8
:1004F000DF91CF911F9108951F93CF93DF93EC016C
:10050000162F60E0812F0E94C4048E8D81FD04C0EF
:1005100061E0812F0E9400051C87812F90E0FC0183
:10052000E458FF4FE491ED87FC01E057FF4FE49161
:10053000F0E0EE0FFF1FEC55FF4F859194919F87E0
:100540008E87DF91CF911F9108951F93CF93DF93F3
:10055000EC01162F1B821A8288EE93E0A0E0B0E037
:100560008C839D83AE83BF8384E291E099838883EB
:100570001F8A1E8A198E188E1B8E1A8E1D8E1C8E37
:100580008E8D8E7F20FB81F98E8F642FCE010E948D
:100590005302612FCE01DF91CF911F910C947C0209
:1005A000CF93DF93EC019A01AB011B8E1A8E198E4B
:1005B000188E1F8A1E8A60E079E08DE390E00E9429
:1005C0006605F9012430310518F0C901039702C00E
:1005D00081E090E09D8F8C8F6C85663108F069C05A
:1005E000C901969587958431910510F0439702C013
:1005F00081E090E09F8B8E8B369718F0C9010597AC
:1006000002C081E090E0998F888FC901880F991FFF
:10061000280F391F36952795369527952D303105AA
:1006200018F02C50310902C021E030E03B8F2A8FB6
:1006300090916800683050F021E06E3008F420E0BE
:1006400081E001C0880F2A95EAF701C084E0892B78
:10065000809368009C85983038F09E3040F0963149
:1006600048F020E030E008C02DE630E005C02BE681
:1006700030E002C02CE630E03C8B2B8B983030F41D
:1006800081E001C0880F9A95EAF70EC0292F30E06B
:100690009E3018F42850310902C02E50310981E0F3
:1006A00001C0880F2A95EAF78D8B8C8D9D8D01975F
:1006B000F1F7CE01DF91CF910C94A90108950E942A
:1006C00043040E945E030E949900C0E0D0E00E94B3
:1006D0008D002097E1F30E940000F9CFCF92DF92C6
:1006E000EF92FF920F931F93CF93DF936C017A01E8
:1006F0008B01C0E0D0E0CE15DF0581F0D8016D910F
:100700008D01D601ED91FC910190F081E02DC601A3
:100710000995892B11F02196EECF7E01C701DF915B
:10072000CF911F910F91FF90EF90DF90CF900895A0
:100730001F920F920FB60F9211242F933F938F9316
:100740009F93AF93BF938091960190919701A09151
:100750009801B09199013091950123E0230F2D3735
:1007600020F40196A11DB11D05C026E8230F0296B5
:10077000A11DB11D2093950180939601909397013F
:10078000A0939801B093990180919A0190919B0157
:10079000A0919C01B0919D010196A11DB11D809376
:1007A0009A0190939B01A0939C01B0939D01BF91EE
:1007B000AF919F918F913F912F910F900FBE0F900E
:1007C0001F9018953FB7F89480919A0190919B01E2
:1007D000A0919C01B0919D0126B5A89B05C02F3F1B
:1007E00019F00196A11DB11D3FBFBA2FA92F982F57
:1007F0008827820F911DA11DB11DBC01CD0142E0D2
:10080000660F771F881F991F4A95D1F708958F9219
:100810009F92AF92BF92CF92DF92EF92FF926B01C5
:100820007C010E94E2034B015C01C114D104E1048C
:10083000F10401F10E942F050E94E203DC01CB01CB
:1008400088199909AA09BB09883E9340A105B105F9
:1008500060F321E0C21AD108E108F10888EE880EA1
:1008600083E0981EA11CB11CC114D104E104F10461
:1008700019F7DBCFFF90EF90DF90CF90BF90AF9054
:100880009F908F900895789484B5826084BD84B5DC
:10089000816084BD85B5826085BD85B5816085BD7B
:1008A000EEE6F0E0808181608083E1E8F0E0108294
:1008B000808182608083808181608083E0E8F0E0D5
:1008C000808181608083E1EBF0E0808184608083BF
:1008D000E0EBF0E0808181608083EAE7F0E08081F6
:1008E0008460808380818260808380818160808356
:1008F0008081806880831092C10008958E3008F056
:100900008E5020911F0190E4299F9001112487703F
:10091000822B80937C0080917A00806480937A009F
:1009200080917A0086FDFCCF80917800209179003B
:1009300090E0922B0895833081F028F4813099F073
:100940008230A1F008958730A9F08830B9F0843062
:10095000D1F4809180008F7D03C0809180008F77DB
:1009600080938000089584B58F7702C084B58F7D11
:1009700084BD08958091B0008F7703C08091B0004E
:100980008F7D8093B0000895CF93DF9390E0FC01BA
:10099000E458FF4F2491FC01E057FF4F84918823D6
:1009A00061F190E0880F991FFC01E854FF4FC59159
:1009B000D491FC01E255FF4FA591B491611109C09A
:1009C0009FB7F8948881209582238883EC912E2309
:1009D0000BC0623061F49FB7F8948881322F309554
:1009E00083238883EC912E2B2C939FBF06C08FB757
:1009F000F894E8812E2B28838FBFDF91CF91089543
:100A00001F93CF93DF93282F30E0F901E859FF4F70
:100A10008491F901E458FF4FD491F901E057FF4F59
:100A2000C491CC23C1F0162F81110E949B04EC2F9E
:100A3000F0E0EE0FFF1FE255FF4FA591B4919FB775
:100A4000F894111104C08C91D095D82302C0EC9178
:100A5000DE2BDC939FBFDF91CF911F910895089506
:100A600097FB072E16F4009407D077FD09D00E945B
:100A7000850507FC05D03EF4909581959F4F08951C
:100A8000709561957F4F0895A1E21A2EAA1BBB1B9A
:100A9000FD010DC0AA1FBB1FEE1FFF1FA217B3074A
:100AA000E407F50720F0A21BB30BE40BF50B661F60
:100AB000771F881F991F1A9469F760957095809524
:100AC00090959B01AC01BD01CF010895052E97FBC8
:100AD0001EF400940E947D0557FD07D00E94440536
:100AE00007FC03D04EF40C947D055095409530954D
:100AF00021953F4F4F4F5F4F08959095809570958A
:100B000061957F4F8F4F9F4F0895AA1BBB1B51E1EB
:100B100007C0AA1FBB1FA617B70710F0A61BB70B6D
:100B2000881F991F5A95A9F780959095BC01CD0112
:100B30000895EE0FFF1F0590F491E02D099410E049
:100B4000C2E6D0E004C0FE010E9499052196C3369A
:080B5000D107C9F7F894FFCFAB
:100B5800410E000F001000110013000300040005EF
:100B6800000600080009000A000B000C000D000137
:100B78000000000012016E03EE0062017B01F1002B
:020B8800630107
:00000001FF
